{
  "_format": "hh-sol-artifact-1",
  "contractName": "Exchange",
  "sourceName": "contracts/Exchange.sol",
  "abi": [
    {
      "inputs": [
        {
          "internalType": "address",
          "name": "token",
          "type": "address"
        }
      ],
      "stateMutability": "nonpayable",
      "type": "constructor"
    },
    {
      "anonymous": false,
      "inputs": [
        {
          "indexed": true,
          "internalType": "address",
          "name": "owner",
          "type": "address"
        },
        {
          "indexed": true,
          "internalType": "address",
          "name": "spender",
          "type": "address"
        },
        {
          "indexed": false,
          "internalType": "uint256",
          "name": "value",
          "type": "uint256"
        }
      ],
      "name": "Approval",
      "type": "event"
    },
    {
      "anonymous": false,
      "inputs": [
        {
          "indexed": true,
          "internalType": "address",
          "name": "from",
          "type": "address"
        },
        {
          "indexed": true,
          "internalType": "address",
          "name": "to",
          "type": "address"
        },
        {
          "indexed": false,
          "internalType": "uint256",
          "name": "value",
          "type": "uint256"
        }
      ],
      "name": "Transfer",
      "type": "event"
    },
    {
      "inputs": [
        {
          "internalType": "uint256",
          "name": "amountOfToken",
          "type": "uint256"
        }
      ],
      "name": "addLiquidity",
      "outputs": [
        {
          "internalType": "uint256",
          "name": "",
          "type": "uint256"
        }
      ],
      "stateMutability": "payable",
      "type": "function"
    },
    {
      "inputs": [
        {
          "internalType": "address",
          "name": "owner",
          "type": "address"
        },
        {
          "internalType": "address",
          "name": "spender",
          "type": "address"
        }
      ],
      "name": "allowance",
      "outputs": [
        {
          "internalType": "uint256",
          "name": "",
          "type": "uint256"
        }
      ],
      "stateMutability": "view",
      "type": "function"
    },
    {
      "inputs": [
        {
          "internalType": "address",
          "name": "spender",
          "type": "address"
        },
        {
          "internalType": "uint256",
          "name": "amount",
          "type": "uint256"
        }
      ],
      "name": "approve",
      "outputs": [
        {
          "internalType": "bool",
          "name": "",
          "type": "bool"
        }
      ],
      "stateMutability": "nonpayable",
      "type": "function"
    },
    {
      "inputs": [
        {
          "internalType": "address",
          "name": "account",
          "type": "address"
        }
      ],
      "name": "balanceOf",
      "outputs": [
        {
          "internalType": "uint256",
          "name": "",
          "type": "uint256"
        }
      ],
      "stateMutability": "view",
      "type": "function"
    },
    {
      "inputs": [],
      "name": "decimals",
      "outputs": [
        {
          "internalType": "uint8",
          "name": "",
          "type": "uint8"
        }
      ],
      "stateMutability": "view",
      "type": "function"
    },
    {
      "inputs": [
        {
          "internalType": "address",
          "name": "spender",
          "type": "address"
        },
        {
          "internalType": "uint256",
          "name": "subtractedValue",
          "type": "uint256"
        }
      ],
      "name": "decreaseAllowance",
      "outputs": [
        {
          "internalType": "bool",
          "name": "",
          "type": "bool"
        }
      ],
      "stateMutability": "nonpayable",
      "type": "function"
    },
    {
      "inputs": [
        {
          "internalType": "uint256",
          "name": "minTokensToReceive",
          "type": "uint256"
        }
      ],
      "name": "ethToTokenSwap",
      "outputs": [],
      "stateMutability": "payable",
      "type": "function"
    },
    {
      "inputs": [
        {
          "internalType": "uint256",
          "name": "inputAmount",
          "type": "uint256"
        },
        {
          "internalType": "uint256",
          "name": "inputReserve",
          "type": "uint256"
        },
        {
          "internalType": "uint256",
          "name": "outputReserve",
          "type": "uint256"
        }
      ],
      "name": "getOutputAmountFromSwap",
      "outputs": [
        {
          "internalType": "uint256",
          "name": "",
          "type": "uint256"
        }
      ],
      "stateMutability": "pure",
      "type": "function"
    },
    {
      "inputs": [],
      "name": "getReserve",
      "outputs": [
        {
          "internalType": "uint256",
          "name": "",
          "type": "uint256"
        }
      ],
      "stateMutability": "view",
      "type": "function"
    },
    {
      "inputs": [
        {
          "internalType": "address",
          "name": "spender",
          "type": "address"
        },
        {
          "internalType": "uint256",
          "name": "addedValue",
          "type": "uint256"
        }
      ],
      "name": "increaseAllowance",
      "outputs": [
        {
          "internalType": "bool",
          "name": "",
          "type": "bool"
        }
      ],
      "stateMutability": "nonpayable",
      "type": "function"
    },
    {
      "inputs": [],
      "name": "name",
      "outputs": [
        {
          "internalType": "string",
          "name": "",
          "type": "string"
        }
      ],
      "stateMutability": "view",
      "type": "function"
    },
    {
      "inputs": [
        {
          "internalType": "uint256",
          "name": "amountOfLPTokens",
          "type": "uint256"
        }
      ],
      "name": "removeLiquidity",
      "outputs": [
        {
          "internalType": "uint256",
          "name": "",
          "type": "uint256"
        },
        {
          "internalType": "uint256",
          "name": "",
          "type": "uint256"
        }
      ],
      "stateMutability": "nonpayable",
      "type": "function"
    },
    {
      "inputs": [],
      "name": "symbol",
      "outputs": [
        {
          "internalType": "string",
          "name": "",
          "type": "string"
        }
      ],
      "stateMutability": "view",
      "type": "function"
    },
    {
      "inputs": [],
      "name": "tokenAddress",
      "outputs": [
        {
          "internalType": "address",
          "name": "",
          "type": "address"
        }
      ],
      "stateMutability": "view",
      "type": "function"
    },
    {
      "inputs": [
        {
          "internalType": "uint256",
          "name": "tokensToSwap",
          "type": "uint256"
        },
        {
          "internalType": "uint256",
          "name": "minEthToReceive",
          "type": "uint256"
        }
      ],
      "name": "tokenToEthSwap",
      "outputs": [],
      "stateMutability": "nonpayable",
      "type": "function"
    },
    {
      "inputs": [],
      "name": "totalSupply",
      "outputs": [
        {
          "internalType": "uint256",
          "name": "",
          "type": "uint256"
        }
      ],
      "stateMutability": "view",
      "type": "function"
    },
    {
      "inputs": [
        {
          "internalType": "address",
          "name": "to",
          "type": "address"
        },
        {
          "internalType": "uint256",
          "name": "amount",
          "type": "uint256"
        }
      ],
      "name": "transfer",
      "outputs": [
        {
          "internalType": "bool",
          "name": "",
          "type": "bool"
        }
      ],
      "stateMutability": "nonpayable",
      "type": "function"
    },
    {
      "inputs": [
        {
          "internalType": "address",
          "name": "from",
          "type": "address"
        },
        {
          "internalType": "address",
          "name": "to",
          "type": "address"
        },
        {
          "internalType": "uint256",
          "name": "amount",
          "type": "uint256"
        }
      ],
      "name": "transferFrom",
      "outputs": [
        {
          "internalType": "bool",
          "name": "",
          "type": "bool"
        }
      ],
      "stateMutability": "nonpayable",
      "type": "function"
    }
  ],
  "bytecode": "0x60806040523480156200001157600080fd5b5060405162002c4d38038062002c4d8339818101604052810190620000379190620001ed565b6040518060400160405280601281526020017f45544820544f4b454e204c5020546f6b656e00000000000000000000000000008152506040518060400160405280600a81526020017f6c70455448544f4b454e000000000000000000000000000000000000000000008152508160039081620000b4919062000499565b508060049081620000c6919062000499565b505050600073ffffffffffffffffffffffffffffffffffffffff168173ffffffffffffffffffffffffffffffffffffffff16036200013b576040517f08c379a0000000000000000000000000000000000000000000000000000000008152600401620001329062000607565b60405180910390fd5b80600560006101000a81548173ffffffffffffffffffffffffffffffffffffffff021916908373ffffffffffffffffffffffffffffffffffffffff1602179055505062000629565b600080fd5b600073ffffffffffffffffffffffffffffffffffffffff82169050919050565b6000620001b58262000188565b9050919050565b620001c781620001a8565b8114620001d357600080fd5b50565b600081519050620001e781620001bc565b92915050565b60006020828403121562000206576200020562000183565b5b60006200021684828501620001d6565b91505092915050565b600081519050919050565b7f4e487b7100000000000000000000000000000000000000000000000000000000600052604160045260246000fd5b7f4e487b7100000000000000000000000000000000000000000000000000000000600052602260045260246000fd5b60006002820490506001821680620002a157607f821691505b602082108103620002b757620002b662000259565b5b50919050565b60008190508160005260206000209050919050565b60006020601f8301049050919050565b600082821b905092915050565b600060088302620003217fffffffffffffffffffffffffffffffffffffffffffffffffffffffffffffffff82620002e2565b6200032d8683620002e2565b95508019841693508086168417925050509392505050565b6000819050919050565b6000819050919050565b60006200037a620003746200036e8462000345565b6200034f565b62000345565b9050919050565b6000819050919050565b620003968362000359565b620003ae620003a58262000381565b848454620002ef565b825550505050565b600090565b620003c5620003b6565b620003d28184846200038b565b505050565b5b81811015620003fa57620003ee600082620003bb565b600181019050620003d8565b5050565b601f82111562000449576200041381620002bd565b6200041e84620002d2565b810160208510156200042e578190505b620004466200043d85620002d2565b830182620003d7565b50505b505050565b600082821c905092915050565b60006200046e600019846008026200044e565b1980831691505092915050565b60006200048983836200045b565b9150826002028217905092915050565b620004a4826200021f565b67ffffffffffffffff811115620004c057620004bf6200022a565b5b620004cc825462000288565b620004d9828285620003fe565b600060209050601f831160018114620005115760008415620004fc578287015190505b6200050885826200047b565b86555062000578565b601f1984166200052186620002bd565b60005b828110156200054b5784890151825560018201915060208501945060208101905062000524565b868310156200056b578489015162000567601f8916826200045b565b8355505b6001600288020188555050505b505050505050565b600082825260208201905092915050565b7f546f6b656e2061646472657373207061737365642069732061206e756c6c206160008201527f6464726573730000000000000000000000000000000000000000000000000000602082015250565b6000620005ef60268362000580565b9150620005fc8262000591565b604082019050919050565b600060208201905081810360008301526200062281620005e0565b9050919050565b61261480620006396000396000f3fe6080604052600436106101095760003560e01c806395d89b4111610095578063a9059cbb11610064578063a9059cbb146103af578063acb3159e146103ec578063dd62ed3e14610429578063e0486c8a14610466578063f979dcd71461048f57610109565b806395d89b41146102de5780639c8f9f23146103095780639d76ea5814610347578063a457c2d71461037257610109565b8063313ce567116100dc578063313ce567146101de578063395093511461020957806351c6590a1461024657806359bf5d391461027657806370a08231146102a157610109565b806306fdde031461010e578063095ea7b31461013957806318160ddd1461017657806323b872dd146101a1575b600080fd5b34801561011a57600080fd5b506101236104ab565b60405161013091906117c9565b60405180910390f35b34801561014557600080fd5b50610160600480360381019061015b9190611884565b61053d565b60405161016d91906118df565b60405180910390f35b34801561018257600080fd5b5061018b610560565b6040516101989190611909565b60405180910390f35b3480156101ad57600080fd5b506101c860048036038101906101c39190611924565b61056a565b6040516101d591906118df565b60405180910390f35b3480156101ea57600080fd5b506101f3610599565b6040516102009190611993565b60405180910390f35b34801561021557600080fd5b50610230600480360381019061022b9190611884565b6105a2565b60405161023d91906118df565b60405180910390f35b610260600480360381019061025b91906119ae565b6105d9565b60405161026d9190611909565b60405180910390f35b34801561028257600080fd5b5061028b6107de565b6040516102989190611909565b60405180910390f35b3480156102ad57600080fd5b506102c860048036038101906102c391906119db565b610881565b6040516102d59190611909565b60405180910390f35b3480156102ea57600080fd5b506102f36108c9565b60405161030091906117c9565b60405180910390f35b34801561031557600080fd5b50610330600480360381019061032b91906119ae565b61095b565b60405161033e929190611a08565b60405180910390f35b34801561035357600080fd5b5061035c610af0565b6040516103699190611a40565b60405180910390f35b34801561037e57600080fd5b5061039960048036038101906103949190611884565b610b16565b6040516103a691906118df565b60405180910390f35b3480156103bb57600080fd5b506103d660048036038101906103d19190611884565b610b8d565b6040516103e391906118df565b60405180910390f35b3480156103f857600080fd5b50610413600480360381019061040e9190611a5b565b610bb0565b6040516104209190611909565b60405180910390f35b34801561043557600080fd5b50610450600480360381019061044b9190611aae565b610c55565b60405161045d9190611909565b60405180910390f35b34801561047257600080fd5b5061048d60048036038101906104889190611aee565b610cdc565b005b6104a960048036038101906104a491906119ae565b610e2a565b005b6060600380546104ba90611b5d565b80601f01602080910402602001604051908101604052809291908181526020018280546104e690611b5d565b80156105335780601f1061050857610100808354040283529160200191610533565b820191906000526020600020905b81548152906001019060200180831161051657829003601f168201915b5050505050905090565b600080610548610f39565b9050610555818585610f41565b600191505092915050565b6000600254905090565b600080610575610f39565b905061058285828561110a565b61058d858585611196565b60019150509392505050565b60006012905090565b6000806105ad610f39565b90506105ce8185856105bf8589610c55565b6105c99190611bbd565b610f41565b600191505092915050565b600080600047905060006105eb6107de565b90506000600560009054906101000a900473ffffffffffffffffffffffffffffffffffffffff169050600082036106b6578073ffffffffffffffffffffffffffffffffffffffff166323b872dd3330896040518463ffffffff1660e01b815260040161065993929190611bf1565b6020604051808303816000875af1158015610678573d6000803e3d6000fd5b505050506040513d601f19601f8201168201806040525081019061069c9190611c54565b508293506106aa338561140c565b839450505050506107d9565b600034846106c49190611c81565b905060008184346106d59190611cb5565b6106df9190611d26565b905080881015610724576040517f08c379a000000000000000000000000000000000000000000000000000000000815260040161071b90611dc9565b60405180910390fd5b8273ffffffffffffffffffffffffffffffffffffffff166323b872dd3330846040518463ffffffff1660e01b815260040161076193929190611bf1565b6020604051808303816000875af1158015610780573d6000803e3d6000fd5b505050506040513d601f19601f820116820180604052508101906107a49190611c54565b5081346107af610560565b6107b99190611cb5565b6107c39190611d26565b95506107cf338761140c565b8596505050505050505b919050565b6000600560009054906101000a900473ffffffffffffffffffffffffffffffffffffffff1673ffffffffffffffffffffffffffffffffffffffff166370a08231306040518263ffffffff1660e01b815260040161083b9190611a40565b602060405180830381865afa158015610858573d6000803e3d6000fd5b505050506040513d601f19601f8201168201806040525081019061087c9190611dfe565b905090565b60008060008373ffffffffffffffffffffffffffffffffffffffff1673ffffffffffffffffffffffffffffffffffffffff168152602001908152602001600020549050919050565b6060600480546108d890611b5d565b80601f016020809104026020016040519081016040528092919081815260200182805461090490611b5d565b80156109515780601f1061092657610100808354040283529160200191610951565b820191906000526020600020905b81548152906001019060200180831161093457829003601f168201915b5050505050905090565b600080600083116109a1576040517f08c379a000000000000000000000000000000000000000000000000000000000815260040161099890611e9d565b60405180910390fd5b600047905060006109b0610560565b905060008186846109c19190611cb5565b6109cb9190611d26565b9050600082876109d96107de565b6109e39190611cb5565b6109ed9190611d26565b90506109f93388611562565b3373ffffffffffffffffffffffffffffffffffffffff166108fc839081150290604051600060405180830381858888f19350505050158015610a3f573d6000803e3d6000fd5b50600560009054906101000a900473ffffffffffffffffffffffffffffffffffffffff1673ffffffffffffffffffffffffffffffffffffffff1663a9059cbb33836040518363ffffffff1660e01b8152600401610a9d929190611ebd565b6020604051808303816000875af1158015610abc573d6000803e3d6000fd5b505050506040513d601f19601f82011682018060405250810190610ae09190611c54565b5081819550955050505050915091565b600560009054906101000a900473ffffffffffffffffffffffffffffffffffffffff1681565b600080610b21610f39565b90506000610b2f8286610c55565b905083811015610b74576040517f08c379a0000000000000000000000000000000000000000000000000000000008152600401610b6b90611f58565b60405180910390fd5b610b818286868403610f41565b60019250505092915050565b600080610b98610f39565b9050610ba5818585611196565b600191505092915050565b60008083118015610bc15750600082115b610c00576040517f08c379a0000000000000000000000000000000000000000000000000000000008152600401610bf790611fc4565b60405180910390fd5b6000606385610c0f9190611cb5565b905060008382610c1f9190611cb5565b9050600082606487610c319190611cb5565b610c3b9190611bbd565b90508082610c499190611d26565b93505050509392505050565b6000600160008473ffffffffffffffffffffffffffffffffffffffff1673ffffffffffffffffffffffffffffffffffffffff16815260200190815260200160002060008373ffffffffffffffffffffffffffffffffffffffff1673ffffffffffffffffffffffffffffffffffffffff16815260200190815260200160002054905092915050565b6000610ce66107de565b90506000610cf5848347610bb0565b905082811015610d3a576040517f08c379a0000000000000000000000000000000000000000000000000000000008152600401610d3190612056565b60405180910390fd5b600560009054906101000a900473ffffffffffffffffffffffffffffffffffffffff1673ffffffffffffffffffffffffffffffffffffffff166323b872dd3330876040518463ffffffff1660e01b8152600401610d9993929190611bf1565b6020604051808303816000875af1158015610db8573d6000803e3d6000fd5b505050506040513d601f19601f82011682018060405250810190610ddc9190611c54565b503373ffffffffffffffffffffffffffffffffffffffff166108fc829081150290604051600060405180830381858888f19350505050158015610e23573d6000803e3d6000fd5b5050505050565b6000610e346107de565b90506000610e4e343447610e489190611c81565b84610bb0565b905082811015610e93576040517f08c379a0000000000000000000000000000000000000000000000000000000008152600401610e8a906120e8565b60405180910390fd5b600560009054906101000a900473ffffffffffffffffffffffffffffffffffffffff1673ffffffffffffffffffffffffffffffffffffffff1663a9059cbb33836040518363ffffffff1660e01b8152600401610ef0929190611ebd565b6020604051808303816000875af1158015610f0f573d6000803e3d6000fd5b505050506040513d601f19601f82011682018060405250810190610f339190611c54565b50505050565b600033905090565b600073ffffffffffffffffffffffffffffffffffffffff168373ffffffffffffffffffffffffffffffffffffffff1603610fb0576040517f08c379a0000000000000000000000000000000000000000000000000000000008152600401610fa79061217a565b60405180910390fd5b600073ffffffffffffffffffffffffffffffffffffffff168273ffffffffffffffffffffffffffffffffffffffff160361101f576040517f08c379a00000000000000000000000000000000000000000000000000000000081526004016110169061220c565b60405180910390fd5b80600160008573ffffffffffffffffffffffffffffffffffffffff1673ffffffffffffffffffffffffffffffffffffffff16815260200190815260200160002060008473ffffffffffffffffffffffffffffffffffffffff1673ffffffffffffffffffffffffffffffffffffffff168152602001908152602001600020819055508173ffffffffffffffffffffffffffffffffffffffff168373ffffffffffffffffffffffffffffffffffffffff167f8c5be1e5ebec7d5bd14f71427d1e84f3dd0314c0f7b2291e5b200ac8c7c3b925836040516110fd9190611909565b60405180910390a3505050565b60006111168484610c55565b90507fffffffffffffffffffffffffffffffffffffffffffffffffffffffffffffffff81146111905781811015611182576040517f08c379a000000000000000000000000000000000000000000000000000000000815260040161117990612278565b60405180910390fd5b61118f8484848403610f41565b5b50505050565b600073ffffffffffffffffffffffffffffffffffffffff168373ffffffffffffffffffffffffffffffffffffffff1603611205576040517f08c379a00000000000000000000000000000000000000000000000000000000081526004016111fc9061230a565b60405180910390fd5b600073ffffffffffffffffffffffffffffffffffffffff168273ffffffffffffffffffffffffffffffffffffffff1603611274576040517f08c379a000000000000000000000000000000000000000000000000000000000815260040161126b9061239c565b60405180910390fd5b61127f83838361172f565b60008060008573ffffffffffffffffffffffffffffffffffffffff1673ffffffffffffffffffffffffffffffffffffffff16815260200190815260200160002054905081811015611305576040517f08c379a00000000000000000000000000000000000000000000000000000000081526004016112fc9061242e565b60405180910390fd5b8181036000808673ffffffffffffffffffffffffffffffffffffffff1673ffffffffffffffffffffffffffffffffffffffff16815260200190815260200160002081905550816000808573ffffffffffffffffffffffffffffffffffffffff1673ffffffffffffffffffffffffffffffffffffffff168152602001908152602001600020600082825401925050819055508273ffffffffffffffffffffffffffffffffffffffff168473ffffffffffffffffffffffffffffffffffffffff167fddf252ad1be2c89b69c2b068fc378daa952ba7f163c4a11628f55a4df523b3ef846040516113f39190611909565b60405180910390a3611406848484611734565b50505050565b600073ffffffffffffffffffffffffffffffffffffffff168273ffffffffffffffffffffffffffffffffffffffff160361147b576040517f08c379a00000000000000000000000000000000000000000000000000000000081526004016114729061249a565b60405180910390fd5b6114876000838361172f565b80600260008282546114999190611bbd565b92505081905550806000808473ffffffffffffffffffffffffffffffffffffffff1673ffffffffffffffffffffffffffffffffffffffff168152602001908152602001600020600082825401925050819055508173ffffffffffffffffffffffffffffffffffffffff16600073ffffffffffffffffffffffffffffffffffffffff167fddf252ad1be2c89b69c2b068fc378daa952ba7f163c4a11628f55a4df523b3ef8360405161154a9190611909565b60405180910390a361155e60008383611734565b5050565b600073ffffffffffffffffffffffffffffffffffffffff168273ffffffffffffffffffffffffffffffffffffffff16036115d1576040517f08c379a00000000000000000000000000000000000000000000000000000000081526004016115c89061252c565b60405180910390fd5b6115dd8260008361172f565b60008060008473ffffffffffffffffffffffffffffffffffffffff1673ffffffffffffffffffffffffffffffffffffffff16815260200190815260200160002054905081811015611663576040517f08c379a000000000000000000000000000000000000000000000000000000000815260040161165a906125be565b60405180910390fd5b8181036000808573ffffffffffffffffffffffffffffffffffffffff1673ffffffffffffffffffffffffffffffffffffffff1681526020019081526020016000208190555081600260008282540392505081905550600073ffffffffffffffffffffffffffffffffffffffff168373ffffffffffffffffffffffffffffffffffffffff167fddf252ad1be2c89b69c2b068fc378daa952ba7f163c4a11628f55a4df523b3ef846040516117169190611909565b60405180910390a361172a83600084611734565b505050565b505050565b505050565b600081519050919050565b600082825260208201905092915050565b60005b83811015611773578082015181840152602081019050611758565b60008484015250505050565b6000601f19601f8301169050919050565b600061179b82611739565b6117a58185611744565b93506117b5818560208601611755565b6117be8161177f565b840191505092915050565b600060208201905081810360008301526117e38184611790565b905092915050565b600080fd5b600073ffffffffffffffffffffffffffffffffffffffff82169050919050565b600061181b826117f0565b9050919050565b61182b81611810565b811461183657600080fd5b50565b60008135905061184881611822565b92915050565b6000819050919050565b6118618161184e565b811461186c57600080fd5b50565b60008135905061187e81611858565b92915050565b6000806040838503121561189b5761189a6117eb565b5b60006118a985828601611839565b92505060206118ba8582860161186f565b9150509250929050565b60008115159050919050565b6118d9816118c4565b82525050565b60006020820190506118f460008301846118d0565b92915050565b6119038161184e565b82525050565b600060208201905061191e60008301846118fa565b92915050565b60008060006060848603121561193d5761193c6117eb565b5b600061194b86828701611839565b935050602061195c86828701611839565b925050604061196d8682870161186f565b9150509250925092565b600060ff82169050919050565b61198d81611977565b82525050565b60006020820190506119a86000830184611984565b92915050565b6000602082840312156119c4576119c36117eb565b5b60006119d28482850161186f565b91505092915050565b6000602082840312156119f1576119f06117eb565b5b60006119ff84828501611839565b91505092915050565b6000604082019050611a1d60008301856118fa565b611a2a60208301846118fa565b9392505050565b611a3a81611810565b82525050565b6000602082019050611a556000830184611a31565b92915050565b600080600060608486031215611a7457611a736117eb565b5b6000611a828682870161186f565b9350506020611a938682870161186f565b9250506040611aa48682870161186f565b9150509250925092565b60008060408385031215611ac557611ac46117eb565b5b6000611ad385828601611839565b9250506020611ae485828601611839565b9150509250929050565b60008060408385031215611b0557611b046117eb565b5b6000611b138582860161186f565b9250506020611b248582860161186f565b9150509250929050565b7f4e487b7100000000000000000000000000000000000000000000000000000000600052602260045260246000fd5b60006002820490506001821680611b7557607f821691505b602082108103611b8857611b87611b2e565b5b50919050565b7f4e487b7100000000000000000000000000000000000000000000000000000000600052601160045260246000fd5b6000611bc88261184e565b9150611bd38361184e565b9250828201905080821115611beb57611bea611b8e565b5b92915050565b6000606082019050611c066000830186611a31565b611c136020830185611a31565b611c2060408301846118fa565b949350505050565b611c31816118c4565b8114611c3c57600080fd5b50565b600081519050611c4e81611c28565b92915050565b600060208284031215611c6a57611c696117eb565b5b6000611c7884828501611c3f565b91505092915050565b6000611c8c8261184e565b9150611c978361184e565b9250828203905081811115611caf57611cae611b8e565b5b92915050565b6000611cc08261184e565b9150611ccb8361184e565b9250828202611cd98161184e565b91508282048414831517611cf057611cef611b8e565b5b5092915050565b7f4e487b7100000000000000000000000000000000000000000000000000000000600052601260045260246000fd5b6000611d318261184e565b9150611d3c8361184e565b925082611d4c57611d4b611cf7565b5b828204905092915050565b7f496e73756666696369656e7420616d6f756e74206f6620746f6b656e7320707260008201527f6f76696465640000000000000000000000000000000000000000000000000000602082015250565b6000611db3602683611744565b9150611dbe82611d57565b604082019050919050565b60006020820190508181036000830152611de281611da6565b9050919050565b600081519050611df881611858565b92915050565b600060208284031215611e1457611e136117eb565b5b6000611e2284828501611de9565b91505092915050565b7f416d6f756e74206f6620746f6b656e7320746f2072656d6f7665206d7573742060008201527f62652067726561746572207468616e2030000000000000000000000000000000602082015250565b6000611e87603183611744565b9150611e9282611e2b565b604082019050919050565b60006020820190508181036000830152611eb681611e7a565b9050919050565b6000604082019050611ed26000830185611a31565b611edf60208301846118fa565b9392505050565b7f45524332303a2064656372656173656420616c6c6f77616e63652062656c6f7760008201527f207a65726f000000000000000000000000000000000000000000000000000000602082015250565b6000611f42602583611744565b9150611f4d82611ee6565b604082019050919050565b60006020820190508181036000830152611f7181611f35565b9050919050565b7f5265736572766573206d7573742062652067726561746572207468616e203000600082015250565b6000611fae601f83611744565b9150611fb982611f78565b602082019050919050565b60006020820190508181036000830152611fdd81611fa1565b9050919050565b7f455448207265636569766564206973206c657373207468616e206d696e696d7560008201527f6d20455448206578706563746564000000000000000000000000000000000000602082015250565b6000612040602e83611744565b915061204b82611fe4565b604082019050919050565b6000602082019050818103600083015261206f81612033565b9050919050565b7f546f6b656e7320726563656976656420617265206c657373207468616e206d6960008201527f6e696d756d20746f6b656e732065787065637465640000000000000000000000602082015250565b60006120d2603583611744565b91506120dd82612076565b604082019050919050565b60006020820190508181036000830152612101816120c5565b9050919050565b7f45524332303a20617070726f76652066726f6d20746865207a65726f2061646460008201527f7265737300000000000000000000000000000000000000000000000000000000602082015250565b6000612164602483611744565b915061216f82612108565b604082019050919050565b6000602082019050818103600083015261219381612157565b9050919050565b7f45524332303a20617070726f766520746f20746865207a65726f20616464726560008201527f7373000000000000000000000000000000000000000000000000000000000000602082015250565b60006121f6602283611744565b91506122018261219a565b604082019050919050565b60006020820190508181036000830152612225816121e9565b9050919050565b7f45524332303a20696e73756666696369656e7420616c6c6f77616e6365000000600082015250565b6000612262601d83611744565b915061226d8261222c565b602082019050919050565b6000602082019050818103600083015261229181612255565b9050919050565b7f45524332303a207472616e736665722066726f6d20746865207a65726f20616460008201527f6472657373000000000000000000000000000000000000000000000000000000602082015250565b60006122f4602583611744565b91506122ff82612298565b604082019050919050565b60006020820190508181036000830152612323816122e7565b9050919050565b7f45524332303a207472616e7366657220746f20746865207a65726f206164647260008201527f6573730000000000000000000000000000000000000000000000000000000000602082015250565b6000612386602383611744565b91506123918261232a565b604082019050919050565b600060208201905081810360008301526123b581612379565b9050919050565b7f45524332303a207472616e7366657220616d6f756e742065786365656473206260008201527f616c616e63650000000000000000000000000000000000000000000000000000602082015250565b6000612418602683611744565b9150612423826123bc565b604082019050919050565b600060208201905081810360008301526124478161240b565b9050919050565b7f45524332303a206d696e7420746f20746865207a65726f206164647265737300600082015250565b6000612484601f83611744565b915061248f8261244e565b602082019050919050565b600060208201905081810360008301526124b381612477565b9050919050565b7f45524332303a206275726e2066726f6d20746865207a65726f2061646472657360008201527f7300000000000000000000000000000000000000000000000000000000000000602082015250565b6000612516602183611744565b9150612521826124ba565b604082019050919050565b6000602082019050818103600083015261254581612509565b9050919050565b7f45524332303a206275726e20616d6f756e7420657863656564732062616c616e60008201527f6365000000000000000000000000000000000000000000000000000000000000602082015250565b60006125a8602283611744565b91506125b38261254c565b604082019050919050565b600060208201905081810360008301526125d78161259b565b905091905056fea264697066735822122012a07a96100319b7c04d59aff11313b9f863d42b45e941ccbfb988f25f7bda4664736f6c63430008120033",
  "linkReferences": {},
  "deployedLinkReferences": {}
}